{
  "_format": "hh-sol-artifact-1",
  "contractName": "Stacking",
  "sourceName": "contracts/Stacking.sol",
  "abi": [
    {
      "inputs": [
        {
          "internalType": "address",
          "name": "_token",
          "type": "address"
        },
        {
          "internalType": "uint256",
          "name": "_dateStart",
          "type": "uint256"
        },
        {
          "internalType": "uint256",
          "name": "_dateStop",
          "type": "uint256"
        },
        {
          "internalType": "address",
          "name": "_owner",
          "type": "address"
        }
      ],
      "stateMutability": "nonpayable",
      "type": "constructor"
    },
    {
      "anonymous": false,
      "inputs": [
        {
          "indexed": false,
          "internalType": "uint256",
          "name": "reawards",
          "type": "uint256"
        }
      ],
      "name": "PoolSupplied",
      "type": "event"
    },
    {
      "anonymous": false,
      "inputs": [
        {
          "indexed": false,
          "internalType": "address",
          "name": "sender",
          "type": "address"
        },
        {
          "indexed": false,
          "internalType": "uint128",
          "name": "amount",
          "type": "uint128"
        },
        {
          "indexed": false,
          "internalType": "uint256",
          "name": "date",
          "type": "uint256"
        }
      ],
      "name": "Stake",
      "type": "event"
    },
    {
      "anonymous": false,
      "inputs": [
        {
          "indexed": false,
          "internalType": "address",
          "name": "sender",
          "type": "address"
        },
        {
          "indexed": false,
          "internalType": "uint128",
          "name": "amount",
          "type": "uint128"
        },
        {
          "indexed": false,
          "internalType": "uint256",
          "name": "date",
          "type": "uint256"
        }
      ],
      "name": "Unstake",
      "type": "event"
    },
    {
      "inputs": [
        {
          "internalType": "address",
          "name": "_sender",
          "type": "address"
        }
      ],
      "name": "calculateReward",
      "outputs": [
        {
          "internalType": "uint256",
          "name": "",
          "type": "uint256"
        }
      ],
      "stateMutability": "view",
      "type": "function"
    },
    {
      "inputs": [],
      "name": "claimRewards",
      "outputs": [],
      "stateMutability": "nonpayable",
      "type": "function"
    },
    {
      "inputs": [],
      "name": "getMyPool",
      "outputs": [
        {
          "internalType": "address",
          "name": "_token",
          "type": "address"
        },
        {
          "internalType": "address",
          "name": "_owner",
          "type": "address"
        },
        {
          "internalType": "uint256",
          "name": "_dateStart",
          "type": "uint256"
        },
        {
          "internalType": "uint256",
          "name": "_dateStop",
          "type": "uint256"
        },
        {
          "internalType": "uint256",
          "name": "_amountTokenRewards",
          "type": "uint256"
        },
        {
          "internalType": "uint256",
          "name": "_stakingTimes",
          "type": "uint256"
        }
      ],
      "stateMutability": "view",
      "type": "function"
    },
    {
      "inputs": [
        {
          "internalType": "address",
          "name": "",
          "type": "address"
        }
      ],
      "name": "stackers",
      "outputs": [
        {
          "internalType": "uint128",
          "name": "amount",
          "type": "uint128"
        },
        {
          "internalType": "uint128",
          "name": "date",
          "type": "uint128"
        }
      ],
      "stateMutability": "view",
      "type": "function"
    },
    {
      "inputs": [
        {
          "internalType": "uint128",
          "name": "_amount",
          "type": "uint128"
        }
      ],
      "name": "stake",
      "outputs": [],
      "stateMutability": "nonpayable",
      "type": "function"
    },
    {
      "inputs": [
        {
          "internalType": "uint256",
          "name": "",
          "type": "uint256"
        }
      ],
      "name": "stakingTimes",
      "outputs": [
        {
          "internalType": "uint128",
          "name": "blockDate",
          "type": "uint128"
        },
        {
          "internalType": "uint128",
          "name": "stakingTotalPool",
          "type": "uint128"
        }
      ],
      "stateMutability": "view",
      "type": "function"
    },
    {
      "inputs": [
        {
          "internalType": "uint256",
          "name": "_amount",
          "type": "uint256"
        }
      ],
      "name": "supplyContract",
      "outputs": [],
      "stateMutability": "nonpayable",
      "type": "function"
    },
    {
      "inputs": [
        {
          "internalType": "uint128",
          "name": "_amount",
          "type": "uint128"
        }
      ],
      "name": "withdraw",
      "outputs": [],
      "stateMutability": "nonpayable",
      "type": "function"
    }
  ],
  "bytecode": "0x6101006040523480156200001257600080fd5b5060405162001f3e38038062001f3e83398181016040528101906200003891906200015f565b8373ffffffffffffffffffffffffffffffffffffffff1660808173ffffffffffffffffffffffffffffffffffffffff16815250508260c081815250508160e081815250508073ffffffffffffffffffffffffffffffffffffffff1660a08173ffffffffffffffffffffffffffffffffffffffff168152505050505050620001d1565b600080fd5b600073ffffffffffffffffffffffffffffffffffffffff82169050919050565b6000620000ec82620000bf565b9050919050565b620000fe81620000df565b81146200010a57600080fd5b50565b6000815190506200011e81620000f3565b92915050565b6000819050919050565b620001398162000124565b81146200014557600080fd5b50565b60008151905062000159816200012e565b92915050565b600080600080608085870312156200017c576200017b620000ba565b5b60006200018c878288016200010d565b94505060206200019f8782880162000148565b9350506040620001b28782880162000148565b9250506060620001c5878288016200010d565b91505092959194509250565b60805160a05160c05160e051611cfb62000243600039600081816106700152610ba401526000818161061b0152818161064f01528181610b83015281816111000152611128015260008181610b620152610be2015260008181610b4101528181610d07015261124c0152611cfb6000f3fe608060405234801561001057600080fd5b50600436106100885760003560e01c806388fe2be81161005b57806388fe2be814610115578063d82e396214610131578063d906520c14610161578063eb4728451461018457610088565b806302387a7b1461008d578063372500ab146100a95780635ba47b73146100b35780637ea036d5146100e4575b600080fd5b6100a760048036038101906100a291906114e4565b6101a0565b005b6100b16102e9565b005b6100cd60048036038101906100c8919061156f565b610386565b6040516100db9291906115ab565b60405180910390f35b6100fe60048036038101906100f9919061160a565b6103e2565b60405161010c9291906115ab565b60405180910390f35b61012f600480360381019061012a91906114e4565b61044a565b005b61014b6004803603810190610146919061156f565b61059e565b6040516101589190611646565b60405180910390f35b610169610b36565b60405161017b96959493929190611670565b60405180910390f35b61019e6004803603810190610199919061160a565b610be0565b005b600260003373ffffffffffffffffffffffffffffffffffffffff1673ffffffffffffffffffffffffffffffffffffffff16815260200190815260200160002060000160009054906101000a90046fffffffffffffffffffffffffffffffff166fffffffffffffffffffffffffffffffff16816fffffffffffffffffffffffffffffffff161115610265576040517f08c379a000000000000000000000000000000000000000000000000000000000815260040161025c9061172e565b60405180910390fd5b60006102703361059e565b905061028e826fffffffffffffffffffffffffffffffff1633610d03565b61029782610dea565b6102a082610f30565b6102aa8133610d03565b7f07d065311977e3375e5a1b71155582b007e4e8e6052b19045c6baa1dc92ac2403383426040516102dd9392919061174e565b60405180910390a15050565b60006102f43361059e565b90506103006000611095565b42600260003373ffffffffffffffffffffffffffffffffffffffff1673ffffffffffffffffffffffffffffffffffffffff16815260200190815260200160002060000160106101000a8154816fffffffffffffffffffffffffffffffff02191690836fffffffffffffffffffffffffffffffff1602179055506103838133610d03565b50565b60026020528060005260406000206000915090508060000160009054906101000a90046fffffffffffffffffffffffffffffffff16908060000160109054906101000a90046fffffffffffffffffffffffffffffffff16905082565b600181815481106103f257600080fd5b906000526020600020016000915090508060000160009054906101000a90046fffffffffffffffffffffffffffffffff16908060000160109054906101000a90046fffffffffffffffffffffffffffffffff16905082565b600080540361048e576040517f08c379a0000000000000000000000000000000000000000000000000000000008152600401610485906117d1565b60405180910390fd5b600080600260003373ffffffffffffffffffffffffffffffffffffffff1673ffffffffffffffffffffffffffffffffffffffff16815260200190815260200160002060000160009054906101000a90046fffffffffffffffffffffffffffffffff166fffffffffffffffffffffffffffffffff1603610510576000905061051c565b6105193361059e565b90505b6105393330846fffffffffffffffffffffffffffffffff16611248565b61054282611332565b61054b82611095565b600081111561055f5761055e8133610d03565b5b7f8eb2bfed831b921b15031ab5a5c88c3d658a40313d1a8c0af65072c5d8cc8c4f3383426040516105929392919061174e565b60405180910390a15050565b600080600260008473ffffffffffffffffffffffffffffffffffffffff1673ffffffffffffffffffffffffffffffffffffffff16815260200190815260200160002060000160009054906101000a90046fffffffffffffffffffffffffffffffff166fffffffffffffffffffffffffffffffff16148061063d57507f000000000000000000000000000000000000000000000000000000000000000042105b1561064b5760009050610b31565b60007f00000000000000000000000000000000000000000000000000000000000000007f00000000000000000000000000000000000000000000000000000000000000006106999190611820565b6000546106a69190611883565b90506000806001805490509050600080600090505b828110156107a057600260003373ffffffffffffffffffffffffffffffffffffffff1673ffffffffffffffffffffffffffffffffffffffff16815260200190815260200160002060000160109054906101000a90046fffffffffffffffffffffffffffffffff166fffffffffffffffffffffffffffffffff1660018281548110610748576107476118b4565b5b9060005260206000200160000160009054906101000a90046fffffffffffffffffffffffffffffffff166fffffffffffffffffffffffffffffffff160361078d578091505b8080610798906118e3565b9150506106bb565b506001820361083757600260003373ffffffffffffffffffffffffffffffffffffffff1673ffffffffffffffffffffffffffffffffffffffff16815260200190815260200160002060000160109054906101000a90046fffffffffffffffffffffffffffffffff166fffffffffffffffffffffffffffffffff16426108259190611820565b83610830919061192b565b9250610b1e565b60008190505b60018361084a9190611820565b8110156109c55760018181548110610865576108646118b4565b5b9060005260206000200160000160109054906101000a90046fffffffffffffffffffffffffffffffff16600260003373ffffffffffffffffffffffffffffffffffffffff1673ffffffffffffffffffffffffffffffffffffffff16815260200190815260200160002060000160009054906101000a90046fffffffffffffffffffffffffffffffff1660018381548110610902576109016118b4565b5b9060005260206000200160000160009054906101000a90046fffffffffffffffffffffffffffffffff166001808561093a919061192b565b8154811061094b5761094a6118b4565b5b9060005260206000200160000160009054906101000a90046fffffffffffffffffffffffffffffffff1661097f919061195f565b61098991906119a3565b61099391906119ed565b6fffffffffffffffffffffffffffffffff16846109b0919061192b565b935080806109bd906118e3565b91505061083d565b5060018080805490506109d89190611820565b815481106109e9576109e86118b4565b5b9060005260206000200160000160109054906101000a90046fffffffffffffffffffffffffffffffff166fffffffffffffffffffffffffffffffff16600260003373ffffffffffffffffffffffffffffffffffffffff1673ffffffffffffffffffffffffffffffffffffffff16815260200190815260200160002060000160009054906101000a90046fffffffffffffffffffffffffffffffff166fffffffffffffffffffffffffffffffff1660018085610aa49190611820565b81548110610ab557610ab46118b4565b5b9060005260206000200160000160009054906101000a90046fffffffffffffffffffffffffffffffff166fffffffffffffffffffffffffffffffff1642610afc9190611820565b610b069190611a1e565b610b109190611883565b83610b1b919061192b565b92505b8383610b2a9190611a1e565b9450505050505b919050565b6000806000806000807f00000000000000000000000000000000000000000000000000000000000000007f00000000000000000000000000000000000000000000000000000000000000007f00000000000000000000000000000000000000000000000000000000000000007f0000000000000000000000000000000000000000000000000000000000000000600054600180549050955095509550955095509550909192939495565b7f000000000000000000000000000000000000000000000000000000000000000073ffffffffffffffffffffffffffffffffffffffff163373ffffffffffffffffffffffffffffffffffffffff1614610c6e576040517f08c379a0000000000000000000000000000000000000000000000000000000008152600401610c6590611ac4565b60405180910390fd5b600080541115610cb3576040517f08c379a0000000000000000000000000000000000000000000000000000000008152600401610caa90611b30565b60405180910390fd5b80600081905550610cc73330600054611248565b7f4f28615b66bdf9a1521b072fbdcbd7828f5ccbce0c03b1b6707c7fe316c9089a600054604051610cf89190611646565b60405180910390a150565b60007f000000000000000000000000000000000000000000000000000000000000000073ffffffffffffffffffffffffffffffffffffffff1663a9059cbb83856040518363ffffffff1660e01b8152600401610d60929190611b50565b6020604051808303816000875af1158015610d7f573d6000803e3d6000fd5b505050506040513d601f19601f82011682018060405250810190610da39190611bb1565b905080610de5576040517f08c379a0000000000000000000000000000000000000000000000000000000008152600401610ddc90611c2a565b60405180910390fd5b505050565b60006001808080549050610dfe9190611820565b81548110610e0f57610e0e6118b4565b5b9060005260206000200160000160109054906101000a90046fffffffffffffffffffffffffffffffff16905060006040518060400160405280426fffffffffffffffffffffffffffffffff1681526020018484610e6c919061195f565b6fffffffffffffffffffffffffffffffff1681525090506001819080600181540180825580915050600190039060005260206000200160009091909190915060008201518160000160006101000a8154816fffffffffffffffffffffffffffffffff02191690836fffffffffffffffffffffffffffffffff16021790555060208201518160000160106101000a8154816fffffffffffffffffffffffffffffffff02191690836fffffffffffffffffffffffffffffffff1602179055505050505050565b604051806040016040528082600260003373ffffffffffffffffffffffffffffffffffffffff1673ffffffffffffffffffffffffffffffffffffffff16815260200190815260200160002060000160009054906101000a90046fffffffffffffffffffffffffffffffff16610fa5919061195f565b6fffffffffffffffffffffffffffffffff168152602001426fffffffffffffffffffffffffffffffff16815250600260003373ffffffffffffffffffffffffffffffffffffffff1673ffffffffffffffffffffffffffffffffffffffff16815260200190815260200160002060008201518160000160006101000a8154816fffffffffffffffffffffffffffffffff02191690836fffffffffffffffffffffffffffffffff16021790555060208201518160000160106101000a8154816fffffffffffffffffffffffffffffffff02191690836fffffffffffffffffffffffffffffffff16021790555090505050565b6000806000600180549050036110ae57600091506110fe565b60018080805490506110c09190611820565b815481106110d1576110d06118b4565b5b9060005260206000200160000160109054906101000a90046fffffffffffffffffffffffffffffffff1691505b7f000000000000000000000000000000000000000000000000000000000000000042101561114e577f00000000000000000000000000000000000000000000000000000000000000009050611152565b4290505b60006040518060400160405280836fffffffffffffffffffffffffffffffff16815260200185856111839190611c4a565b6fffffffffffffffffffffffffffffffff1681525090506001819080600181540180825580915050600190039060005260206000200160009091909190915060008201518160000160006101000a8154816fffffffffffffffffffffffffffffffff02191690836fffffffffffffffffffffffffffffffff16021790555060208201518160000160106101000a8154816fffffffffffffffffffffffffffffffff02191690836fffffffffffffffffffffffffffffffff160217905550505050505050565b60007f000000000000000000000000000000000000000000000000000000000000000073ffffffffffffffffffffffffffffffffffffffff166323b872dd8585856040518463ffffffff1660e01b81526004016112a793929190611c8e565b6020604051808303816000875af11580156112c6573d6000803e3d6000fd5b505050506040513d601f19601f820116820180604052508101906112ea9190611bb1565b90508061132c576040517f08c379a000000000000000000000000000000000000000000000000000000000815260040161132390611c2a565b60405180910390fd5b50505050565b604051806040016040528082600260003373ffffffffffffffffffffffffffffffffffffffff1673ffffffffffffffffffffffffffffffffffffffff16815260200190815260200160002060000160009054906101000a90046fffffffffffffffffffffffffffffffff166113a79190611c4a565b6fffffffffffffffffffffffffffffffff168152602001426fffffffffffffffffffffffffffffffff16815250600260003373ffffffffffffffffffffffffffffffffffffffff1673ffffffffffffffffffffffffffffffffffffffff16815260200190815260200160002060008201518160000160006101000a8154816fffffffffffffffffffffffffffffffff02191690836fffffffffffffffffffffffffffffffff16021790555060208201518160000160106101000a8154816fffffffffffffffffffffffffffffffff02191690836fffffffffffffffffffffffffffffffff16021790555090505050565b600080fd5b60006fffffffffffffffffffffffffffffffff82169050919050565b6114c18161149c565b81146114cc57600080fd5b50565b6000813590506114de816114b8565b92915050565b6000602082840312156114fa576114f9611497565b5b6000611508848285016114cf565b91505092915050565b600073ffffffffffffffffffffffffffffffffffffffff82169050919050565b600061153c82611511565b9050919050565b61154c81611531565b811461155757600080fd5b50565b60008135905061156981611543565b92915050565b60006020828403121561158557611584611497565b5b60006115938482850161155a565b91505092915050565b6115a58161149c565b82525050565b60006040820190506115c0600083018561159c565b6115cd602083018461159c565b9392505050565b6000819050919050565b6115e7816115d4565b81146115f257600080fd5b50565b600081359050611604816115de565b92915050565b6000602082840312156116205761161f611497565b5b600061162e848285016115f5565b91505092915050565b611640816115d4565b82525050565b600060208201905061165b6000830184611637565b92915050565b61166a81611531565b82525050565b600060c0820190506116856000830189611661565b6116926020830188611661565b61169f6040830187611637565b6116ac6060830186611637565b6116b96080830185611637565b6116c660a0830184611637565b979650505050505050565b600082825260208201905092915050565b7f446f6e2774206861766520736f206d616e7920746f6b656e7300000000000000600082015250565b60006117186019836116d1565b9150611723826116e2565b602082019050919050565b600060208201905081810360008301526117478161170b565b9050919050565b60006060820190506117636000830186611661565b611770602083018561159c565b61177d6040830184611637565b949350505050565b7f436f6e7472616374206861736e277420737570706c7900000000000000000000600082015250565b60006117bb6016836116d1565b91506117c682611785565b602082019050919050565b600060208201905081810360008301526117ea816117ae565b9050919050565b7f4e487b7100000000000000000000000000000000000000000000000000000000600052601160045260246000fd5b600061182b826115d4565b9150611836836115d4565b925082820390508181111561184e5761184d6117f1565b5b92915050565b7f4e487b7100000000000000000000000000000000000000000000000000000000600052601260045260246000fd5b600061188e826115d4565b9150611899836115d4565b9250826118a9576118a8611854565b5b828204905092915050565b7f4e487b7100000000000000000000000000000000000000000000000000000000600052603260045260246000fd5b60006118ee826115d4565b91507fffffffffffffffffffffffffffffffffffffffffffffffffffffffffffffffff82036119205761191f6117f1565b5b600182019050919050565b6000611936826115d4565b9150611941836115d4565b9250828201905080821115611959576119586117f1565b5b92915050565b600061196a8261149c565b91506119758361149c565b925082820390506fffffffffffffffffffffffffffffffff81111561199d5761199c6117f1565b5b92915050565b60006119ae8261149c565b91506119b98361149c565b9250816fffffffffffffffffffffffffffffffff04831182151516156119e2576119e16117f1565b5b828202905092915050565b60006119f88261149c565b9150611a038361149c565b925082611a1357611a12611854565b5b828204905092915050565b6000611a29826115d4565b9150611a34836115d4565b9250817fffffffffffffffffffffffffffffffffffffffffffffffffffffffffffffffff0483118215151615611a6d57611a6c6117f1565b5b828202905092915050565b7f596f7520617265206e6f7420746865206f776e65720000000000000000000000600082015250565b6000611aae6015836116d1565b9150611ab982611a78565b602082019050919050565b60006020820190508181036000830152611add81611aa1565b9050919050565b7f436f6e74726163742068617320616c7265616479206120737570706c79000000600082015250565b6000611b1a601d836116d1565b9150611b2582611ae4565b602082019050919050565b60006020820190508181036000830152611b4981611b0d565b9050919050565b6000604082019050611b656000830185611661565b611b726020830184611637565b9392505050565b60008115159050919050565b611b8e81611b79565b8114611b9957600080fd5b50565b600081519050611bab81611b85565b92915050565b600060208284031215611bc757611bc6611497565b5b6000611bd584828501611b9c565b91505092915050565b7f5472616e736665722066726f6d206572726f7200000000000000000000000000600082015250565b6000611c146013836116d1565b9150611c1f82611bde565b602082019050919050565b60006020820190508181036000830152611c4381611c07565b9050919050565b6000611c558261149c565b9150611c608361149c565b925082820190506fffffffffffffffffffffffffffffffff811115611c8857611c876117f1565b5b92915050565b6000606082019050611ca36000830186611661565b611cb06020830185611661565b611cbd6040830184611637565b94935050505056fea26469706673582212205569dc2b375b8ec6a84a6a4a245f2ba056f718b370d9cbd1db02a2c692b5502064736f6c63430008100033",
  "linkReferences": {},
  "deployedLinkReferences": {}
}