{
  "_format": "hh-sol-artifact-1",
  "contractName": "Stacking",
  "sourceName": "contracts/Stacking.sol",
  "abi": [
    {
      "inputs": [
        {
          "internalType": "address",
          "name": "_token",
          "type": "address"
        },
        {
          "internalType": "uint256",
          "name": "_dateStart",
          "type": "uint256"
        },
        {
          "internalType": "uint256",
          "name": "_dateStop",
          "type": "uint256"
        },
        {
          "internalType": "address",
          "name": "_owner",
          "type": "address"
        }
      ],
      "stateMutability": "nonpayable",
      "type": "constructor"
    },
    {
      "anonymous": false,
      "inputs": [
        {
          "indexed": false,
          "internalType": "uint256",
          "name": "reawards",
          "type": "uint256"
        }
      ],
      "name": "PoolSupplied",
      "type": "event"
    },
    {
      "anonymous": false,
      "inputs": [
        {
          "indexed": false,
          "internalType": "address",
          "name": "sender",
          "type": "address"
        },
        {
          "indexed": false,
          "internalType": "uint128",
          "name": "amount",
          "type": "uint128"
        },
        {
          "indexed": false,
          "internalType": "uint256",
          "name": "date",
          "type": "uint256"
        }
      ],
      "name": "Stake",
      "type": "event"
    },
    {
      "anonymous": false,
      "inputs": [
        {
          "indexed": false,
          "internalType": "address",
          "name": "sender",
          "type": "address"
        },
        {
          "indexed": false,
          "internalType": "uint128",
          "name": "amount",
          "type": "uint128"
        },
        {
          "indexed": false,
          "internalType": "uint256",
          "name": "date",
          "type": "uint256"
        }
      ],
      "name": "Unstake",
      "type": "event"
    },
    {
      "inputs": [
        {
          "internalType": "address",
          "name": "_sender",
          "type": "address"
        }
      ],
      "name": "calculateReward",
      "outputs": [
        {
          "internalType": "uint256",
          "name": "",
          "type": "uint256"
        }
      ],
      "stateMutability": "view",
      "type": "function"
    },
    {
      "inputs": [],
      "name": "claimRewards",
      "outputs": [],
      "stateMutability": "nonpayable",
      "type": "function"
    },
    {
      "inputs": [],
      "name": "getMyPool",
      "outputs": [
        {
          "internalType": "address",
          "name": "_token",
          "type": "address"
        },
        {
          "internalType": "address",
          "name": "_owner",
          "type": "address"
        },
        {
          "internalType": "uint256",
          "name": "_dateStart",
          "type": "uint256"
        },
        {
          "internalType": "uint256",
          "name": "_dateStop",
          "type": "uint256"
        },
        {
          "internalType": "uint256",
          "name": "_amountTokenRewards",
          "type": "uint256"
        },
        {
          "internalType": "uint256",
          "name": "_stakingTimes",
          "type": "uint256"
        }
      ],
      "stateMutability": "view",
      "type": "function"
    },
    {
      "inputs": [
        {
          "internalType": "address",
          "name": "",
          "type": "address"
        }
      ],
      "name": "stackers",
      "outputs": [
        {
          "internalType": "uint128",
          "name": "amount",
          "type": "uint128"
        },
        {
          "internalType": "uint128",
          "name": "date",
          "type": "uint128"
        }
      ],
      "stateMutability": "view",
      "type": "function"
    },
    {
      "inputs": [
        {
          "internalType": "uint128",
          "name": "_amount",
          "type": "uint128"
        }
      ],
      "name": "stake",
      "outputs": [],
      "stateMutability": "nonpayable",
      "type": "function"
    },
    {
      "inputs": [
        {
          "internalType": "uint256",
          "name": "",
          "type": "uint256"
        }
      ],
      "name": "stakingTimes",
      "outputs": [
        {
          "internalType": "uint128",
          "name": "blockDate",
          "type": "uint128"
        },
        {
          "internalType": "uint128",
          "name": "stakingTotalPool",
          "type": "uint128"
        }
      ],
      "stateMutability": "view",
      "type": "function"
    },
    {
      "inputs": [
        {
          "internalType": "uint256",
          "name": "_amount",
          "type": "uint256"
        }
      ],
      "name": "supplyContract",
      "outputs": [],
      "stateMutability": "nonpayable",
      "type": "function"
    },
    {
      "inputs": [
        {
          "internalType": "uint128",
          "name": "_amount",
          "type": "uint128"
        }
      ],
      "name": "withdraw",
      "outputs": [],
      "stateMutability": "nonpayable",
      "type": "function"
    }
  ],
  "bytecode": "0x6101006040523480156200001257600080fd5b506040516200203a3803806200203a83398181016040528101906200003891906200015f565b8373ffffffffffffffffffffffffffffffffffffffff1660808173ffffffffffffffffffffffffffffffffffffffff16815250508260c081815250508160e081815250508073ffffffffffffffffffffffffffffffffffffffff1660a08173ffffffffffffffffffffffffffffffffffffffff168152505050505050620001d1565b600080fd5b600073ffffffffffffffffffffffffffffffffffffffff82169050919050565b6000620000ec82620000bf565b9050919050565b620000fe81620000df565b81146200010a57600080fd5b50565b6000815190506200011e81620000f3565b92915050565b6000819050919050565b620001398162000124565b81146200014557600080fd5b50565b60008151905062000159816200012e565b92915050565b600080600080608085870312156200017c576200017b620000ba565b5b60006200018c878288016200010d565b94505060206200019f8782880162000148565b9350506040620001b28782880162000148565b9250506060620001c5878288016200010d565b91505092959194509250565b60805160a05160c05160e051611df06200024a600039600081816106d30152610c0701526000818161044d0152818161067e015281816106b201528181610be601528181611163015261118b015260008181610bc50152610c45015260008181610ba401528181610d6a01526112af0152611df06000f3fe608060405234801561001057600080fd5b50600436106100885760003560e01c806388fe2be81161005b57806388fe2be814610115578063d82e396214610131578063d906520c14610161578063eb4728451461018457610088565b806302387a7b1461008d578063372500ab146100a95780635ba47b73146100b35780637ea036d5146100e4575b600080fd5b6100a760048036038101906100a29190611547565b6101a0565b005b6100b16102e9565b005b6100cd60048036038101906100c891906115d2565b610386565b6040516100db92919061160e565b60405180910390f35b6100fe60048036038101906100f9919061166d565b6103e2565b60405161010c92919061160e565b60405180910390f35b61012f600480360381019061012a9190611547565b61044a565b005b61014b600480360381019061014691906115d2565b610601565b60405161015891906116a9565b60405180910390f35b610169610b99565b60405161017b969594939291906116d3565b60405180910390f35b61019e6004803603810190610199919061166d565b610c43565b005b600260003373ffffffffffffffffffffffffffffffffffffffff1673ffffffffffffffffffffffffffffffffffffffff16815260200190815260200160002060000160009054906101000a90046fffffffffffffffffffffffffffffffff166fffffffffffffffffffffffffffffffff16816fffffffffffffffffffffffffffffffff161115610265576040517f08c379a000000000000000000000000000000000000000000000000000000000815260040161025c90611791565b60405180910390fd5b600061027033610601565b905061028e826fffffffffffffffffffffffffffffffff1633610d66565b61029782610e4d565b6102a082610f93565b6102aa8133610d66565b7f07d065311977e3375e5a1b71155582b007e4e8e6052b19045c6baa1dc92ac2403383426040516102dd939291906117b1565b60405180910390a15050565b60006102f433610601565b905061030060006110f8565b42600260003373ffffffffffffffffffffffffffffffffffffffff1673ffffffffffffffffffffffffffffffffffffffff16815260200190815260200160002060000160106101000a8154816fffffffffffffffffffffffffffffffff02191690836fffffffffffffffffffffffffffffffff1602179055506103838133610d66565b50565b60026020528060005260406000206000915090508060000160009054906101000a90046fffffffffffffffffffffffffffffffff16908060000160109054906101000a90046fffffffffffffffffffffffffffffffff16905082565b600181815481106103f257600080fd5b906000526020600020016000915090508060000160009054906101000a90046fffffffffffffffffffffffffffffffff16908060000160109054906101000a90046fffffffffffffffffffffffffffffffff16905082565b427f000000000000000000000000000000000000000000000000000000000000000011156104ad576040517f08c379a00000000000000000000000000000000000000000000000000000000081526004016104a49061185a565b60405180910390fd5b60008054036104f1576040517f08c379a00000000000000000000000000000000000000000000000000000000081526004016104e8906118c6565b60405180910390fd5b600080600260003373ffffffffffffffffffffffffffffffffffffffff1673ffffffffffffffffffffffffffffffffffffffff16815260200190815260200160002060000160009054906101000a90046fffffffffffffffffffffffffffffffff166fffffffffffffffffffffffffffffffff1603610573576000905061057f565b61057c33610601565b90505b61059c3330846fffffffffffffffffffffffffffffffff166112ab565b6105a582611395565b6105ae826110f8565b60008111156105c2576105c18133610d66565b5b7f8eb2bfed831b921b15031ab5a5c88c3d658a40313d1a8c0af65072c5d8cc8c4f3383426040516105f5939291906117b1565b60405180910390a15050565b600080600260008473ffffffffffffffffffffffffffffffffffffffff1673ffffffffffffffffffffffffffffffffffffffff16815260200190815260200160002060000160009054906101000a90046fffffffffffffffffffffffffffffffff166fffffffffffffffffffffffffffffffff1614806106a057507f000000000000000000000000000000000000000000000000000000000000000042105b156106ae5760009050610b94565b60007f00000000000000000000000000000000000000000000000000000000000000007f00000000000000000000000000000000000000000000000000000000000000006106fc9190611915565b6000546107099190611978565b90506000806001805490509050600080600090505b8281101561080357600260003373ffffffffffffffffffffffffffffffffffffffff1673ffffffffffffffffffffffffffffffffffffffff16815260200190815260200160002060000160109054906101000a90046fffffffffffffffffffffffffffffffff166fffffffffffffffffffffffffffffffff16600182815481106107ab576107aa6119a9565b5b9060005260206000200160000160009054906101000a90046fffffffffffffffffffffffffffffffff166fffffffffffffffffffffffffffffffff16036107f0578091505b80806107fb906119d8565b91505061071e565b506001820361089a57600260003373ffffffffffffffffffffffffffffffffffffffff1673ffffffffffffffffffffffffffffffffffffffff16815260200190815260200160002060000160109054906101000a90046fffffffffffffffffffffffffffffffff166fffffffffffffffffffffffffffffffff16426108889190611915565b836108939190611a20565b9250610b81565b60008190505b6001836108ad9190611915565b811015610a2857600181815481106108c8576108c76119a9565b5b9060005260206000200160000160109054906101000a90046fffffffffffffffffffffffffffffffff16600260003373ffffffffffffffffffffffffffffffffffffffff1673ffffffffffffffffffffffffffffffffffffffff16815260200190815260200160002060000160009054906101000a90046fffffffffffffffffffffffffffffffff1660018381548110610965576109646119a9565b5b9060005260206000200160000160009054906101000a90046fffffffffffffffffffffffffffffffff166001808561099d9190611a20565b815481106109ae576109ad6119a9565b5b9060005260206000200160000160009054906101000a90046fffffffffffffffffffffffffffffffff166109e29190611a54565b6109ec9190611a98565b6109f69190611ae2565b6fffffffffffffffffffffffffffffffff1684610a139190611a20565b93508080610a20906119d8565b9150506108a0565b506001808080549050610a3b9190611915565b81548110610a4c57610a4b6119a9565b5b9060005260206000200160000160109054906101000a90046fffffffffffffffffffffffffffffffff166fffffffffffffffffffffffffffffffff16600260003373ffffffffffffffffffffffffffffffffffffffff1673ffffffffffffffffffffffffffffffffffffffff16815260200190815260200160002060000160009054906101000a90046fffffffffffffffffffffffffffffffff166fffffffffffffffffffffffffffffffff1660018085610b079190611915565b81548110610b1857610b176119a9565b5b9060005260206000200160000160009054906101000a90046fffffffffffffffffffffffffffffffff166fffffffffffffffffffffffffffffffff1642610b5f9190611915565b610b699190611b13565b610b739190611978565b83610b7e9190611a20565b92505b8383610b8d9190611b13565b9450505050505b919050565b6000806000806000807f00000000000000000000000000000000000000000000000000000000000000007f00000000000000000000000000000000000000000000000000000000000000007f00000000000000000000000000000000000000000000000000000000000000007f0000000000000000000000000000000000000000000000000000000000000000600054600180549050955095509550955095509550909192939495565b7f000000000000000000000000000000000000000000000000000000000000000073ffffffffffffffffffffffffffffffffffffffff163373ffffffffffffffffffffffffffffffffffffffff1614610cd1576040517f08c379a0000000000000000000000000000000000000000000000000000000008152600401610cc890611bb9565b60405180910390fd5b600080541115610d16576040517f08c379a0000000000000000000000000000000000000000000000000000000008152600401610d0d90611c25565b60405180910390fd5b80600081905550610d2a33306000546112ab565b7f4f28615b66bdf9a1521b072fbdcbd7828f5ccbce0c03b1b6707c7fe316c9089a600054604051610d5b91906116a9565b60405180910390a150565b60007f000000000000000000000000000000000000000000000000000000000000000073ffffffffffffffffffffffffffffffffffffffff1663a9059cbb83856040518363ffffffff1660e01b8152600401610dc3929190611c45565b6020604051808303816000875af1158015610de2573d6000803e3d6000fd5b505050506040513d601f19601f82011682018060405250810190610e069190611ca6565b905080610e48576040517f08c379a0000000000000000000000000000000000000000000000000000000008152600401610e3f90611d1f565b60405180910390fd5b505050565b60006001808080549050610e619190611915565b81548110610e7257610e716119a9565b5b9060005260206000200160000160109054906101000a90046fffffffffffffffffffffffffffffffff16905060006040518060400160405280426fffffffffffffffffffffffffffffffff1681526020018484610ecf9190611a54565b6fffffffffffffffffffffffffffffffff1681525090506001819080600181540180825580915050600190039060005260206000200160009091909190915060008201518160000160006101000a8154816fffffffffffffffffffffffffffffffff02191690836fffffffffffffffffffffffffffffffff16021790555060208201518160000160106101000a8154816fffffffffffffffffffffffffffffffff02191690836fffffffffffffffffffffffffffffffff1602179055505050505050565b604051806040016040528082600260003373ffffffffffffffffffffffffffffffffffffffff1673ffffffffffffffffffffffffffffffffffffffff16815260200190815260200160002060000160009054906101000a90046fffffffffffffffffffffffffffffffff166110089190611a54565b6fffffffffffffffffffffffffffffffff168152602001426fffffffffffffffffffffffffffffffff16815250600260003373ffffffffffffffffffffffffffffffffffffffff1673ffffffffffffffffffffffffffffffffffffffff16815260200190815260200160002060008201518160000160006101000a8154816fffffffffffffffffffffffffffffffff02191690836fffffffffffffffffffffffffffffffff16021790555060208201518160000160106101000a8154816fffffffffffffffffffffffffffffffff02191690836fffffffffffffffffffffffffffffffff16021790555090505050565b6000806000600180549050036111115760009150611161565b60018080805490506111239190611915565b81548110611134576111336119a9565b5b9060005260206000200160000160109054906101000a90046fffffffffffffffffffffffffffffffff1691505b7f00000000000000000000000000000000000000000000000000000000000000004210156111b1577f000000000000000000000000000000000000000000000000000000000000000090506111b5565b4290505b60006040518060400160405280836fffffffffffffffffffffffffffffffff16815260200185856111e69190611d3f565b6fffffffffffffffffffffffffffffffff1681525090506001819080600181540180825580915050600190039060005260206000200160009091909190915060008201518160000160006101000a8154816fffffffffffffffffffffffffffffffff02191690836fffffffffffffffffffffffffffffffff16021790555060208201518160000160106101000a8154816fffffffffffffffffffffffffffffffff02191690836fffffffffffffffffffffffffffffffff160217905550505050505050565b60007f000000000000000000000000000000000000000000000000000000000000000073ffffffffffffffffffffffffffffffffffffffff166323b872dd8585856040518463ffffffff1660e01b815260040161130a93929190611d83565b6020604051808303816000875af1158015611329573d6000803e3d6000fd5b505050506040513d601f19601f8201168201806040525081019061134d9190611ca6565b90508061138f576040517f08c379a000000000000000000000000000000000000000000000000000000000815260040161138690611d1f565b60405180910390fd5b50505050565b604051806040016040528082600260003373ffffffffffffffffffffffffffffffffffffffff1673ffffffffffffffffffffffffffffffffffffffff16815260200190815260200160002060000160009054906101000a90046fffffffffffffffffffffffffffffffff1661140a9190611d3f565b6fffffffffffffffffffffffffffffffff168152602001426fffffffffffffffffffffffffffffffff16815250600260003373ffffffffffffffffffffffffffffffffffffffff1673ffffffffffffffffffffffffffffffffffffffff16815260200190815260200160002060008201518160000160006101000a8154816fffffffffffffffffffffffffffffffff02191690836fffffffffffffffffffffffffffffffff16021790555060208201518160000160106101000a8154816fffffffffffffffffffffffffffffffff02191690836fffffffffffffffffffffffffffffffff16021790555090505050565b600080fd5b60006fffffffffffffffffffffffffffffffff82169050919050565b611524816114ff565b811461152f57600080fd5b50565b6000813590506115418161151b565b92915050565b60006020828403121561155d5761155c6114fa565b5b600061156b84828501611532565b91505092915050565b600073ffffffffffffffffffffffffffffffffffffffff82169050919050565b600061159f82611574565b9050919050565b6115af81611594565b81146115ba57600080fd5b50565b6000813590506115cc816115a6565b92915050565b6000602082840312156115e8576115e76114fa565b5b60006115f6848285016115bd565b91505092915050565b611608816114ff565b82525050565b600060408201905061162360008301856115ff565b61163060208301846115ff565b9392505050565b6000819050919050565b61164a81611637565b811461165557600080fd5b50565b60008135905061166781611641565b92915050565b600060208284031215611683576116826114fa565b5b600061169184828501611658565b91505092915050565b6116a381611637565b82525050565b60006020820190506116be600083018461169a565b92915050565b6116cd81611594565b82525050565b600060c0820190506116e860008301896116c4565b6116f560208301886116c4565b611702604083018761169a565b61170f606083018661169a565b61171c608083018561169a565b61172960a083018461169a565b979650505050505050565b600082825260208201905092915050565b7f446f6e2774206861766520736f206d616e7920746f6b656e7300000000000000600082015250565b600061177b601983611734565b915061178682611745565b602082019050919050565b600060208201905081810360008301526117aa8161176e565b9050919050565b60006060820190506117c660008301866116c4565b6117d360208301856115ff565b6117e0604083018461169a565b949350505050565b7f596f752063616e2774207374616b65206265666f72652064617465537461727460008201527f2021000000000000000000000000000000000000000000000000000000000000602082015250565b6000611844602283611734565b915061184f826117e8565b604082019050919050565b6000602082019050818103600083015261187381611837565b9050919050565b7f436f6e7472616374206861736e277420737570706c7900000000000000000000600082015250565b60006118b0601683611734565b91506118bb8261187a565b602082019050919050565b600060208201905081810360008301526118df816118a3565b9050919050565b7f4e487b7100000000000000000000000000000000000000000000000000000000600052601160045260246000fd5b600061192082611637565b915061192b83611637565b9250828203905081811115611943576119426118e6565b5b92915050565b7f4e487b7100000000000000000000000000000000000000000000000000000000600052601260045260246000fd5b600061198382611637565b915061198e83611637565b92508261199e5761199d611949565b5b828204905092915050565b7f4e487b7100000000000000000000000000000000000000000000000000000000600052603260045260246000fd5b60006119e382611637565b91507fffffffffffffffffffffffffffffffffffffffffffffffffffffffffffffffff8203611a1557611a146118e6565b5b600182019050919050565b6000611a2b82611637565b9150611a3683611637565b9250828201905080821115611a4e57611a4d6118e6565b5b92915050565b6000611a5f826114ff565b9150611a6a836114ff565b925082820390506fffffffffffffffffffffffffffffffff811115611a9257611a916118e6565b5b92915050565b6000611aa3826114ff565b9150611aae836114ff565b9250816fffffffffffffffffffffffffffffffff0483118215151615611ad757611ad66118e6565b5b828202905092915050565b6000611aed826114ff565b9150611af8836114ff565b925082611b0857611b07611949565b5b828204905092915050565b6000611b1e82611637565b9150611b2983611637565b9250817fffffffffffffffffffffffffffffffffffffffffffffffffffffffffffffffff0483118215151615611b6257611b616118e6565b5b828202905092915050565b7f596f7520617265206e6f7420746865206f776e65720000000000000000000000600082015250565b6000611ba3601583611734565b9150611bae82611b6d565b602082019050919050565b60006020820190508181036000830152611bd281611b96565b9050919050565b7f436f6e74726163742068617320616c7265616479206120737570706c79000000600082015250565b6000611c0f601d83611734565b9150611c1a82611bd9565b602082019050919050565b60006020820190508181036000830152611c3e81611c02565b9050919050565b6000604082019050611c5a60008301856116c4565b611c67602083018461169a565b9392505050565b60008115159050919050565b611c8381611c6e565b8114611c8e57600080fd5b50565b600081519050611ca081611c7a565b92915050565b600060208284031215611cbc57611cbb6114fa565b5b6000611cca84828501611c91565b91505092915050565b7f5472616e736665722066726f6d206572726f7200000000000000000000000000600082015250565b6000611d09601383611734565b9150611d1482611cd3565b602082019050919050565b60006020820190508181036000830152611d3881611cfc565b9050919050565b6000611d4a826114ff565b9150611d55836114ff565b925082820190506fffffffffffffffffffffffffffffffff811115611d7d57611d7c6118e6565b5b92915050565b6000606082019050611d9860008301866116c4565b611da560208301856116c4565b611db2604083018461169a565b94935050505056fea264697066735822122023bd6abcc370b94a8672c737b36a27a88d98223fd57667c2141bccab48fa256864736f6c63430008100033",
  "linkReferences": {},
  "deployedLinkReferences": {}
}