{
  "_format": "hh-sol-artifact-1",
  "contractName": "StackingFactory",
  "sourceName": "contracts/StackingFactory.sol",
  "abi": [
    {
      "anonymous": false,
      "inputs": [
        {
          "indexed": false,
          "internalType": "contract Stacking",
          "name": "contrat",
          "type": "address"
        }
      ],
      "name": "newPool",
      "type": "event"
    },
    {
      "inputs": [
        {
          "internalType": "uint256",
          "name": "",
          "type": "uint256"
        }
      ],
      "name": "Contracts",
      "outputs": [
        {
          "internalType": "contract Stacking",
          "name": "",
          "type": "address"
        }
      ],
      "stateMutability": "view",
      "type": "function"
    },
    {
      "inputs": [
        {
          "internalType": "address",
          "name": "_token",
          "type": "address"
        },
        {
          "internalType": "uint256",
          "name": "_dateStop",
          "type": "uint256"
        }
      ],
      "name": "createPool",
      "outputs": [],
      "stateMutability": "nonpayable",
      "type": "function"
    }
  ],
  "bytecode": "0x608060405234801561001057600080fd5b50611fd6806100206000396000f3fe608060405234801561001057600080fd5b50600436106100365760003560e01c806312d361711461003b5780638a79550314610057575b600080fd5b61005560048036038101906100509190610247565b610087565b005b610071600480360381019061006c9190610287565b610162565b60405161007e9190610313565b60405180910390f35b6000828233604051610098906101a1565b6100a49392919061034c565b604051809103906000f0801580156100c0573d6000803e3d6000fd5b5090506000819080600181540180825580915050600190039060005260206000200160009091909190916101000a81548173ffffffffffffffffffffffffffffffffffffffff021916908373ffffffffffffffffffffffffffffffffffffffff1602179055507f3c5c7fb3765689bf8e6dab4ce29034e7499cd10850a6f7b39af58cad86178a1e816040516101559190610313565b60405180910390a1505050565b6000818154811061017257600080fd5b906000526020600020016000915054906101000a900473ffffffffffffffffffffffffffffffffffffffff1681565b611c1d8061038483390190565b600080fd5b600073ffffffffffffffffffffffffffffffffffffffff82169050919050565b60006101de826101b3565b9050919050565b6101ee816101d3565b81146101f957600080fd5b50565b60008135905061020b816101e5565b92915050565b6000819050919050565b61022481610211565b811461022f57600080fd5b50565b6000813590506102418161021b565b92915050565b6000806040838503121561025e5761025d6101ae565b5b600061026c858286016101fc565b925050602061027d85828601610232565b9150509250929050565b60006020828403121561029d5761029c6101ae565b5b60006102ab84828501610232565b91505092915050565b6000819050919050565b60006102d96102d46102cf846101b3565b6102b4565b6101b3565b9050919050565b60006102eb826102be565b9050919050565b60006102fd826102e0565b9050919050565b61030d816102f2565b82525050565b60006020820190506103286000830184610304565b92915050565b610337816101d3565b82525050565b61034681610211565b82525050565b6000606082019050610361600083018661032e565b61036e602083018561033d565b61037b604083018461032e565b94935050505056fe6101006040523480156200001257600080fd5b5060405162001c1d38038062001c1d83398181016040528101906200003891906200015e565b8273ffffffffffffffffffffffffffffffffffffffff1660808173ffffffffffffffffffffffffffffffffffffffff16815250504260c081815250508160e081815250508073ffffffffffffffffffffffffffffffffffffffff1660a08173ffffffffffffffffffffffffffffffffffffffff1681525050505050620001ba565b600080fd5b600073ffffffffffffffffffffffffffffffffffffffff82169050919050565b6000620000eb82620000be565b9050919050565b620000fd81620000de565b81146200010957600080fd5b50565b6000815190506200011d81620000f2565b92915050565b6000819050919050565b620001388162000123565b81146200014457600080fd5b50565b60008151905062000158816200012d565b92915050565b6000806000606084860312156200017a5762000179620000b9565b5b60006200018a868287016200010c565b93505060206200019d8682870162000147565b9250506040620001b0868287016200010c565b9150509250925092565b60805160a05160c05160e051611a1b6200020260003960006106280152600061060701526000610a86015260008181610b6e01528181610b9401526110040152611a1b6000f3fe608060405234801561001057600080fd5b50600436106100885760003560e01c806388fe2be81161005b57806388fe2be814610115578063d82e396214610131578063eb47284514610161578063fc0c546a1461017d57610088565b806302387a7b1461008d578063372500ab146100a95780635ba47b73146100b35780637ea036d5146100e4575b600080fd5b6100a760048036038101906100a2919061129c565b61019b565b005b6100b16102e4565b005b6100cd60048036038101906100c89190611327565b610381565b6040516100db929190611363565b60405180910390f35b6100fe60048036038101906100f991906113c2565b6103dd565b60405161010c9291906113fe565b60405180910390f35b61012f600480360381019061012a919061129c565b61042d565b005b61014b60048036038101906101469190611327565b610581565b6040516101589190611427565b60405180910390f35b61017b600480360381019061017691906113c2565b610a84565b005b610185610b6c565b6040516101929190611451565b60405180910390f35b600260003373ffffffffffffffffffffffffffffffffffffffff1673ffffffffffffffffffffffffffffffffffffffff16815260200190815260200160002060000160009054906101000a90046fffffffffffffffffffffffffffffffff166fffffffffffffffffffffffffffffffff16816fffffffffffffffffffffffffffffffff161115610260576040517f08c379a0000000000000000000000000000000000000000000000000000000008152600401610257906114c9565b60405180910390fd5b600061026b33610581565b9050610289826fffffffffffffffffffffffffffffffff1633610b90565b61029282610c77565b61029b82610d7e565b6102a58133610b90565b7f07d065311977e3375e5a1b71155582b007e4e8e6052b19045c6baa1dc92ac2403383426040516102d8939291906114e9565b60405180910390a15050565b60006102ef33610581565b90506102fb6000610ee3565b42600260003373ffffffffffffffffffffffffffffffffffffffff1673ffffffffffffffffffffffffffffffffffffffff16815260200190815260200160002060000160106101000a8154816fffffffffffffffffffffffffffffffff02191690836fffffffffffffffffffffffffffffffff16021790555061037e8133610b90565b50565b60026020528060005260406000206000915090508060000160009054906101000a90046fffffffffffffffffffffffffffffffff16908060000160109054906101000a90046fffffffffffffffffffffffffffffffff16905082565b600181815481106103ed57600080fd5b90600052602060002090600202016000915090508060000154908060010160009054906101000a90046fffffffffffffffffffffffffffffffff16905082565b6000805403610471576040517f08c379a00000000000000000000000000000000000000000000000000000000081526004016104689061156c565b60405180910390fd5b600080600260003373ffffffffffffffffffffffffffffffffffffffff1673ffffffffffffffffffffffffffffffffffffffff16815260200190815260200160002060000160009054906101000a90046fffffffffffffffffffffffffffffffff166fffffffffffffffffffffffffffffffff16036104f357600090506104ff565b6104fc33610581565b90505b61051c3330846fffffffffffffffffffffffffffffffff16611000565b610525826110ea565b61052e82610ee3565b6000811115610542576105418133610b90565b5b7f8eb2bfed831b921b15031ab5a5c88c3d658a40313d1a8c0af65072c5d8cc8c4f338342604051610575939291906114e9565b60405180910390a15050565b600080600260008473ffffffffffffffffffffffffffffffffffffffff1673ffffffffffffffffffffffffffffffffffffffff16815260200190815260200160002060000160009054906101000a90046fffffffffffffffffffffffffffffffff166fffffffffffffffffffffffffffffffff16036106035760009050610a7f565b60007f00000000000000000000000000000000000000000000000000000000000000007f000000000000000000000000000000000000000000000000000000000000000061065191906115bb565b60005461065e919061161e565b90506000806001805490509050600080600090505b8281101561072e57600260003373ffffffffffffffffffffffffffffffffffffffff1673ffffffffffffffffffffffffffffffffffffffff16815260200190815260200160002060000160109054906101000a90046fffffffffffffffffffffffffffffffff166fffffffffffffffffffffffffffffffff1660018281548110610700576106ff61164f565b5b9060005260206000209060020201600001540361071b578091505b80806107269061167e565b915050610673565b50600182036107c557600260003373ffffffffffffffffffffffffffffffffffffffff1673ffffffffffffffffffffffffffffffffffffffff16815260200190815260200160002060000160109054906101000a90046fffffffffffffffffffffffffffffffff166fffffffffffffffffffffffffffffffff16426107b391906115bb565b836107be91906116c6565b9250610a6c565b60008190505b6001836107d891906115bb565b81101561093957600181815481106107f3576107f261164f565b5b906000526020600020906002020160010160009054906101000a90046fffffffffffffffffffffffffffffffff166fffffffffffffffffffffffffffffffff16600260003373ffffffffffffffffffffffffffffffffffffffff1673ffffffffffffffffffffffffffffffffffffffff16815260200190815260200160002060000160009054906101000a90046fffffffffffffffffffffffffffffffff166fffffffffffffffffffffffffffffffff16600183815481106108b8576108b761164f565b5b906000526020600020906002020160000154600180856108d891906116c6565b815481106108e9576108e861164f565b5b90600052602060002090600202016000015461090591906115bb565b61090f91906116fa565b610919919061161e565b8461092491906116c6565b935080806109319061167e565b9150506107cb565b50600180808054905061094c91906115bb565b8154811061095d5761095c61164f565b5b906000526020600020906002020160010160009054906101000a90046fffffffffffffffffffffffffffffffff166fffffffffffffffffffffffffffffffff16600260003373ffffffffffffffffffffffffffffffffffffffff1673ffffffffffffffffffffffffffffffffffffffff16815260200190815260200160002060000160009054906101000a90046fffffffffffffffffffffffffffffffff166fffffffffffffffffffffffffffffffff1660018085610a1c91906115bb565b81548110610a2d57610a2c61164f565b5b90600052602060002090600202016000015442610a4a91906115bb565b610a5491906116fa565b610a5e919061161e565b83610a6991906116c6565b92505b8383610a7891906116fa565b9450505050505b919050565b7f000000000000000000000000000000000000000000000000000000000000000073ffffffffffffffffffffffffffffffffffffffff163373ffffffffffffffffffffffffffffffffffffffff1614610b12576040517f08c379a0000000000000000000000000000000000000000000000000000000008152600401610b09906117a0565b60405180910390fd5b600080541115610b57576040517f08c379a0000000000000000000000000000000000000000000000000000000008152600401610b4e9061180c565b60405180910390fd5b80600081905550610b69333083611000565b50565b7f000000000000000000000000000000000000000000000000000000000000000081565b60007f000000000000000000000000000000000000000000000000000000000000000073ffffffffffffffffffffffffffffffffffffffff1663a9059cbb83856040518363ffffffff1660e01b8152600401610bed92919061182c565b6020604051808303816000875af1158015610c0c573d6000803e3d6000fd5b505050506040513d601f19601f82011682018060405250810190610c30919061188d565b905080610c72576040517f08c379a0000000000000000000000000000000000000000000000000000000008152600401610c6990611906565b60405180910390fd5b505050565b60006001808080549050610c8b91906115bb565b81548110610c9c57610c9b61164f565b5b906000526020600020906002020160010160009054906101000a90046fffffffffffffffffffffffffffffffff169050600060405180604001604052804281526020018484610ceb9190611926565b6fffffffffffffffffffffffffffffffff16815250905060018190806001815401808255809150506001900390600052602060002090600202016000909190919091506000820151816000015560208201518160010160006101000a8154816fffffffffffffffffffffffffffffffff02191690836fffffffffffffffffffffffffffffffff1602179055505050505050565b604051806040016040528082600260003373ffffffffffffffffffffffffffffffffffffffff1673ffffffffffffffffffffffffffffffffffffffff16815260200190815260200160002060000160009054906101000a90046fffffffffffffffffffffffffffffffff16610df39190611926565b6fffffffffffffffffffffffffffffffff168152602001426fffffffffffffffffffffffffffffffff16815250600260003373ffffffffffffffffffffffffffffffffffffffff1673ffffffffffffffffffffffffffffffffffffffff16815260200190815260200160002060008201518160000160006101000a8154816fffffffffffffffffffffffffffffffff02191690836fffffffffffffffffffffffffffffffff16021790555060208201518160000160106101000a8154816fffffffffffffffffffffffffffffffff02191690836fffffffffffffffffffffffffffffffff16021790555090505050565b60008060018054905003610efa5760009050610f4e565b6001808080549050610f0c91906115bb565b81548110610f1d57610f1c61164f565b5b906000526020600020906002020160010160009054906101000a90046fffffffffffffffffffffffffffffffff1690505b600060405180604001604052804281526020018484610f6d919061196a565b6fffffffffffffffffffffffffffffffff16815250905060018190806001815401808255809150506001900390600052602060002090600202016000909190919091506000820151816000015560208201518160010160006101000a8154816fffffffffffffffffffffffffffffffff02191690836fffffffffffffffffffffffffffffffff1602179055505050505050565b60007f000000000000000000000000000000000000000000000000000000000000000073ffffffffffffffffffffffffffffffffffffffff166323b872dd8585856040518463ffffffff1660e01b815260040161105f939291906119ae565b6020604051808303816000875af115801561107e573d6000803e3d6000fd5b505050506040513d601f19601f820116820180604052508101906110a2919061188d565b9050806110e4576040517f08c379a00000000000000000000000000000000000000000000000000000000081526004016110db90611906565b60405180910390fd5b50505050565b604051806040016040528082600260003373ffffffffffffffffffffffffffffffffffffffff1673ffffffffffffffffffffffffffffffffffffffff16815260200190815260200160002060000160009054906101000a90046fffffffffffffffffffffffffffffffff1661115f919061196a565b6fffffffffffffffffffffffffffffffff168152602001426fffffffffffffffffffffffffffffffff16815250600260003373ffffffffffffffffffffffffffffffffffffffff1673ffffffffffffffffffffffffffffffffffffffff16815260200190815260200160002060008201518160000160006101000a8154816fffffffffffffffffffffffffffffffff02191690836fffffffffffffffffffffffffffffffff16021790555060208201518160000160106101000a8154816fffffffffffffffffffffffffffffffff02191690836fffffffffffffffffffffffffffffffff16021790555090505050565b600080fd5b60006fffffffffffffffffffffffffffffffff82169050919050565b61127981611254565b811461128457600080fd5b50565b60008135905061129681611270565b92915050565b6000602082840312156112b2576112b161124f565b5b60006112c084828501611287565b91505092915050565b600073ffffffffffffffffffffffffffffffffffffffff82169050919050565b60006112f4826112c9565b9050919050565b611304816112e9565b811461130f57600080fd5b50565b600081359050611321816112fb565b92915050565b60006020828403121561133d5761133c61124f565b5b600061134b84828501611312565b91505092915050565b61135d81611254565b82525050565b60006040820190506113786000830185611354565b6113856020830184611354565b9392505050565b6000819050919050565b61139f8161138c565b81146113aa57600080fd5b50565b6000813590506113bc81611396565b92915050565b6000602082840312156113d8576113d761124f565b5b60006113e6848285016113ad565b91505092915050565b6113f88161138c565b82525050565b600060408201905061141360008301856113ef565b6114206020830184611354565b9392505050565b600060208201905061143c60008301846113ef565b92915050565b61144b816112e9565b82525050565b60006020820190506114666000830184611442565b92915050565b600082825260208201905092915050565b7f446f6e2774206861766520736f206d616e7920746f6b656e7300000000000000600082015250565b60006114b360198361146c565b91506114be8261147d565b602082019050919050565b600060208201905081810360008301526114e2816114a6565b9050919050565b60006060820190506114fe6000830186611442565b61150b6020830185611354565b61151860408301846113ef565b949350505050565b7f436f6e7472616374206861736e277420737570706c7900000000000000000000600082015250565b600061155660168361146c565b915061156182611520565b602082019050919050565b6000602082019050818103600083015261158581611549565b9050919050565b7f4e487b7100000000000000000000000000000000000000000000000000000000600052601160045260246000fd5b60006115c68261138c565b91506115d18361138c565b92508282039050818111156115e9576115e861158c565b5b92915050565b7f4e487b7100000000000000000000000000000000000000000000000000000000600052601260045260246000fd5b60006116298261138c565b91506116348361138c565b925082611644576116436115ef565b5b828204905092915050565b7f4e487b7100000000000000000000000000000000000000000000000000000000600052603260045260246000fd5b60006116898261138c565b91507fffffffffffffffffffffffffffffffffffffffffffffffffffffffffffffffff82036116bb576116ba61158c565b5b600182019050919050565b60006116d18261138c565b91506116dc8361138c565b92508282019050808211156116f4576116f361158c565b5b92915050565b60006117058261138c565b91506117108361138c565b9250817fffffffffffffffffffffffffffffffffffffffffffffffffffffffffffffffff04831182151516156117495761174861158c565b5b828202905092915050565b7f596f7520617265206e6f7420746865206f776e65720000000000000000000000600082015250565b600061178a60158361146c565b915061179582611754565b602082019050919050565b600060208201905081810360008301526117b98161177d565b9050919050565b7f436f6e74726163742068617320616c7265616479206120737570706c79000000600082015250565b60006117f6601d8361146c565b9150611801826117c0565b602082019050919050565b60006020820190508181036000830152611825816117e9565b9050919050565b60006040820190506118416000830185611442565b61184e60208301846113ef565b9392505050565b60008115159050919050565b61186a81611855565b811461187557600080fd5b50565b60008151905061188781611861565b92915050565b6000602082840312156118a3576118a261124f565b5b60006118b184828501611878565b91505092915050565b7f5472616e736665722066726f6d206572726f7200000000000000000000000000600082015250565b60006118f060138361146c565b91506118fb826118ba565b602082019050919050565b6000602082019050818103600083015261191f816118e3565b9050919050565b600061193182611254565b915061193c83611254565b925082820390506fffffffffffffffffffffffffffffffff8111156119645761196361158c565b5b92915050565b600061197582611254565b915061198083611254565b925082820190506fffffffffffffffffffffffffffffffff8111156119a8576119a761158c565b5b92915050565b60006060820190506119c36000830186611442565b6119d06020830185611442565b6119dd60408301846113ef565b94935050505056fea264697066735822122036ebedeb6e313d1cbe090814a476269300b689ed6de6e86b972adcd8375132a864736f6c63430008100033a2646970667358221220cb39c58d8ca0bf6da5dd614ddd72e36f4f53e676c8f4a63afca1cac1c3ec307a64736f6c63430008100033",
  "linkReferences": {},
  "deployedLinkReferences": {}
}