{
  "_format": "hh-sol-artifact-1",
  "contractName": "StackingFactory",
  "sourceName": "contracts/StackingFactory.sol",
  "abi": [
    {
      "anonymous": false,
      "inputs": [
        {
          "indexed": false,
          "internalType": "contract Stacking",
          "name": "contrat",
          "type": "address"
        },
        {
          "indexed": false,
          "internalType": "address",
          "name": "owner",
          "type": "address"
        }
      ],
      "name": "newPool",
      "type": "event"
    },
    {
      "inputs": [
        {
          "internalType": "uint256",
          "name": "",
          "type": "uint256"
        }
      ],
      "name": "Contracts",
      "outputs": [
        {
          "internalType": "contract Stacking",
          "name": "",
          "type": "address"
        }
      ],
      "stateMutability": "view",
      "type": "function"
    },
    {
      "inputs": [
        {
          "internalType": "uint256",
          "name": "_dateStart",
          "type": "uint256"
        },
        {
          "internalType": "uint256",
          "name": "_dateStop",
          "type": "uint256"
        },
        {
          "internalType": "address",
          "name": "_token",
          "type": "address"
        }
      ],
      "name": "createPool",
      "outputs": [],
      "stateMutability": "nonpayable",
      "type": "function"
    }
  ],
  "bytecode": "0x608060405234801561001057600080fd5b50612393806100206000396000f3fe608060405234801561001057600080fd5b50600436106100365760003560e01c80637fd8b9a21461003b5780638a79550314610057575b600080fd5b6100556004803603810190610050919061024c565b610087565b005b610071600480360381019061006c919061029f565b610167565b60405161007e919061032b565b60405180910390f35b600081848433604051610099906101a6565b6100a69493929190610364565b604051809103906000f0801580156100c2573d6000803e3d6000fd5b5090506000819080600181540180825580915050600190039060005260206000200160009091909190916101000a81548173ffffffffffffffffffffffffffffffffffffffff021916908373ffffffffffffffffffffffffffffffffffffffff1602179055507f981f5136b5c9ee923d2f587e06ef06728c8f54eef782210659bbe0e3e7dafb9881336040516101599291906103a9565b60405180910390a150505050565b6000818154811061017757600080fd5b906000526020600020016000915054906101000a900473ffffffffffffffffffffffffffffffffffffffff1681565b611f8b806103d383390190565b600080fd5b6000819050919050565b6101cb816101b8565b81146101d657600080fd5b50565b6000813590506101e8816101c2565b92915050565b600073ffffffffffffffffffffffffffffffffffffffff82169050919050565b6000610219826101ee565b9050919050565b6102298161020e565b811461023457600080fd5b50565b60008135905061024681610220565b92915050565b600080600060608486031215610265576102646101b3565b5b6000610273868287016101d9565b9350506020610284868287016101d9565b925050604061029586828701610237565b9150509250925092565b6000602082840312156102b5576102b46101b3565b5b60006102c3848285016101d9565b91505092915050565b6000819050919050565b60006102f16102ec6102e7846101ee565b6102cc565b6101ee565b9050919050565b6000610303826102d6565b9050919050565b6000610315826102f8565b9050919050565b6103258161030a565b82525050565b6000602082019050610340600083018461031c565b92915050565b61034f8161020e565b82525050565b61035e816101b8565b82525050565b60006080820190506103796000830187610346565b6103866020830186610355565b6103936040830185610355565b6103a06060830184610346565b95945050505050565b60006040820190506103be600083018561031c565b6103cb6020830184610346565b939250505056fe6101006040523480156200001257600080fd5b5060405162001f8b38038062001f8b83398181016040528101906200003891906200015f565b8373ffffffffffffffffffffffffffffffffffffffff1660808173ffffffffffffffffffffffffffffffffffffffff16815250508260c081815250508160e081815250508073ffffffffffffffffffffffffffffffffffffffff1660a08173ffffffffffffffffffffffffffffffffffffffff168152505050505050620001d1565b600080fd5b600073ffffffffffffffffffffffffffffffffffffffff82169050919050565b6000620000ec82620000bf565b9050919050565b620000fe81620000df565b81146200010a57600080fd5b50565b6000815190506200011e81620000f3565b92915050565b6000819050919050565b620001398162000124565b81146200014557600080fd5b50565b60008151905062000159816200012e565b92915050565b600080600080608085870312156200017c576200017b620000ba565b5b60006200018c878288016200010d565b94505060206200019f8782880162000148565b9350506040620001b28782880162000148565b9250506060620001c5878288016200010d565b91505092959194509250565b60805160a05160c05160e051611d646200022760003960006106a4015260006106830152600081816105d50152610b02015260008181610bd701528181610cd301528181610cf901526111690152611d646000f3fe608060405234801561001057600080fd5b506004361061009e5760003560e01c80638da5cb5b116100665780638da5cb5b146101475780639bd5acc114610165578063d82e396214610183578063eb472845146101b3578063fc0c546a146101cf5761009e565b806302387a7b146100a3578063372500ab146100bf5780635ba47b73146100c95780637ea036d5146100fa57806388fe2be81461012b575b600080fd5b6100bd60048036038101906100b89190611401565b6101ed565b005b6100c7610336565b005b6100e360048036038101906100de919061148c565b6103d3565b6040516100f19291906114c8565b60405180910390f35b610114600480360381019061010f9190611527565b61042f565b604051610122929190611563565b60405180910390f35b61014560048036038101906101409190611401565b61047f565b005b61014f6105d3565b60405161015c919061159b565b60405180910390f35b61016d6105f7565b60405161017a91906115b6565b60405180910390f35b61019d6004803603810190610198919061148c565b6105fd565b6040516101aa91906115b6565b60405180910390f35b6101cd60048036038101906101c89190611527565b610b00565b005b6101d7610cd1565b6040516101e4919061159b565b60405180910390f35b600260003373ffffffffffffffffffffffffffffffffffffffff1673ffffffffffffffffffffffffffffffffffffffff16815260200190815260200160002060000160009054906101000a90046fffffffffffffffffffffffffffffffff166fffffffffffffffffffffffffffffffff16816fffffffffffffffffffffffffffffffff1611156102b2576040517f08c379a00000000000000000000000000000000000000000000000000000000081526004016102a99061162e565b60405180910390fd5b60006102bd336105fd565b90506102db826fffffffffffffffffffffffffffffffff1633610cf5565b6102e482610ddc565b6102ed82610ee3565b6102f78133610cf5565b7f07d065311977e3375e5a1b71155582b007e4e8e6052b19045c6baa1dc92ac24033834260405161032a9392919061164e565b60405180910390a15050565b6000610341336105fd565b905061034d6000611048565b42600260003373ffffffffffffffffffffffffffffffffffffffff1673ffffffffffffffffffffffffffffffffffffffff16815260200190815260200160002060000160106101000a8154816fffffffffffffffffffffffffffffffff02191690836fffffffffffffffffffffffffffffffff1602179055506103d08133610cf5565b50565b60026020528060005260406000206000915090508060000160009054906101000a90046fffffffffffffffffffffffffffffffff16908060000160109054906101000a90046fffffffffffffffffffffffffffffffff16905082565b6001818154811061043f57600080fd5b90600052602060002090600202016000915090508060000154908060010160009054906101000a90046fffffffffffffffffffffffffffffffff16905082565b60008054036104c3576040517f08c379a00000000000000000000000000000000000000000000000000000000081526004016104ba906116d1565b60405180910390fd5b600080600260003373ffffffffffffffffffffffffffffffffffffffff1673ffffffffffffffffffffffffffffffffffffffff16815260200190815260200160002060000160009054906101000a90046fffffffffffffffffffffffffffffffff166fffffffffffffffffffffffffffffffff16036105455760009050610551565b61054e336105fd565b90505b61056e3330846fffffffffffffffffffffffffffffffff16611165565b6105778261124f565b61058082611048565b6000811115610594576105938133610cf5565b5b7f8eb2bfed831b921b15031ab5a5c88c3d658a40313d1a8c0af65072c5d8cc8c4f3383426040516105c79392919061164e565b60405180910390a15050565b7f000000000000000000000000000000000000000000000000000000000000000081565b60005481565b600080600260008473ffffffffffffffffffffffffffffffffffffffff1673ffffffffffffffffffffffffffffffffffffffff16815260200190815260200160002060000160009054906101000a90046fffffffffffffffffffffffffffffffff166fffffffffffffffffffffffffffffffff160361067f5760009050610afb565b60007f00000000000000000000000000000000000000000000000000000000000000007f00000000000000000000000000000000000000000000000000000000000000006106cd9190611720565b6000546106da9190611783565b90506000806001805490509050600080600090505b828110156107aa57600260003373ffffffffffffffffffffffffffffffffffffffff1673ffffffffffffffffffffffffffffffffffffffff16815260200190815260200160002060000160109054906101000a90046fffffffffffffffffffffffffffffffff166fffffffffffffffffffffffffffffffff166001828154811061077c5761077b6117b4565b5b90600052602060002090600202016000015403610797578091505b80806107a2906117e3565b9150506106ef565b506001820361084157600260003373ffffffffffffffffffffffffffffffffffffffff1673ffffffffffffffffffffffffffffffffffffffff16815260200190815260200160002060000160109054906101000a90046fffffffffffffffffffffffffffffffff166fffffffffffffffffffffffffffffffff164261082f9190611720565b8361083a919061182b565b9250610ae8565b60008190505b6001836108549190611720565b8110156109b5576001818154811061086f5761086e6117b4565b5b906000526020600020906002020160010160009054906101000a90046fffffffffffffffffffffffffffffffff166fffffffffffffffffffffffffffffffff16600260003373ffffffffffffffffffffffffffffffffffffffff1673ffffffffffffffffffffffffffffffffffffffff16815260200190815260200160002060000160009054906101000a90046fffffffffffffffffffffffffffffffff166fffffffffffffffffffffffffffffffff1660018381548110610934576109336117b4565b5b90600052602060002090600202016000015460018085610954919061182b565b81548110610965576109646117b4565b5b9060005260206000209060020201600001546109819190611720565b61098b919061185f565b6109959190611783565b846109a0919061182b565b935080806109ad906117e3565b915050610847565b5060018080805490506109c89190611720565b815481106109d9576109d86117b4565b5b906000526020600020906002020160010160009054906101000a90046fffffffffffffffffffffffffffffffff166fffffffffffffffffffffffffffffffff16600260003373ffffffffffffffffffffffffffffffffffffffff1673ffffffffffffffffffffffffffffffffffffffff16815260200190815260200160002060000160009054906101000a90046fffffffffffffffffffffffffffffffff166fffffffffffffffffffffffffffffffff1660018085610a989190611720565b81548110610aa957610aa86117b4565b5b90600052602060002090600202016000015442610ac69190611720565b610ad0919061185f565b610ada9190611783565b83610ae5919061182b565b92505b8383610af4919061185f565b9450505050505b919050565b7f000000000000000000000000000000000000000000000000000000000000000073ffffffffffffffffffffffffffffffffffffffff163373ffffffffffffffffffffffffffffffffffffffff1614610b8e576040517f08c379a0000000000000000000000000000000000000000000000000000000008152600401610b8590611905565b60405180910390fd5b600080541115610bd3576040517f08c379a0000000000000000000000000000000000000000000000000000000008152600401610bca90611971565b60405180910390fd5b60007f000000000000000000000000000000000000000000000000000000000000000073ffffffffffffffffffffffffffffffffffffffff1663313ce5676040518163ffffffff1660e01b8152600401602060405180830381865afa158015610c40573d6000803e3d6000fd5b505050506040513d601f19601f82011682018060405250810190610c6491906119ca565b60ff16905080600a610c769190611b2a565b82610c81919061185f565b600081905550610c943330600054611165565b7f4f28615b66bdf9a1521b072fbdcbd7828f5ccbce0c03b1b6707c7fe316c9089a600054604051610cc591906115b6565b60405180910390a15050565b7f000000000000000000000000000000000000000000000000000000000000000081565b60007f000000000000000000000000000000000000000000000000000000000000000073ffffffffffffffffffffffffffffffffffffffff1663a9059cbb83856040518363ffffffff1660e01b8152600401610d52929190611b75565b6020604051808303816000875af1158015610d71573d6000803e3d6000fd5b505050506040513d601f19601f82011682018060405250810190610d959190611bd6565b905080610dd7576040517f08c379a0000000000000000000000000000000000000000000000000000000008152600401610dce90611c4f565b60405180910390fd5b505050565b60006001808080549050610df09190611720565b81548110610e0157610e006117b4565b5b906000526020600020906002020160010160009054906101000a90046fffffffffffffffffffffffffffffffff169050600060405180604001604052804281526020018484610e509190611c6f565b6fffffffffffffffffffffffffffffffff16815250905060018190806001815401808255809150506001900390600052602060002090600202016000909190919091506000820151816000015560208201518160010160006101000a8154816fffffffffffffffffffffffffffffffff02191690836fffffffffffffffffffffffffffffffff1602179055505050505050565b604051806040016040528082600260003373ffffffffffffffffffffffffffffffffffffffff1673ffffffffffffffffffffffffffffffffffffffff16815260200190815260200160002060000160009054906101000a90046fffffffffffffffffffffffffffffffff16610f589190611c6f565b6fffffffffffffffffffffffffffffffff168152602001426fffffffffffffffffffffffffffffffff16815250600260003373ffffffffffffffffffffffffffffffffffffffff1673ffffffffffffffffffffffffffffffffffffffff16815260200190815260200160002060008201518160000160006101000a8154816fffffffffffffffffffffffffffffffff02191690836fffffffffffffffffffffffffffffffff16021790555060208201518160000160106101000a8154816fffffffffffffffffffffffffffffffff02191690836fffffffffffffffffffffffffffffffff16021790555090505050565b6000806001805490500361105f57600090506110b3565b60018080805490506110719190611720565b81548110611082576110816117b4565b5b906000526020600020906002020160010160009054906101000a90046fffffffffffffffffffffffffffffffff1690505b6000604051806040016040528042815260200184846110d29190611cb3565b6fffffffffffffffffffffffffffffffff16815250905060018190806001815401808255809150506001900390600052602060002090600202016000909190919091506000820151816000015560208201518160010160006101000a8154816fffffffffffffffffffffffffffffffff02191690836fffffffffffffffffffffffffffffffff1602179055505050505050565b60007f000000000000000000000000000000000000000000000000000000000000000073ffffffffffffffffffffffffffffffffffffffff166323b872dd8585856040518463ffffffff1660e01b81526004016111c493929190611cf7565b6020604051808303816000875af11580156111e3573d6000803e3d6000fd5b505050506040513d601f19601f820116820180604052508101906112079190611bd6565b905080611249576040517f08c379a000000000000000000000000000000000000000000000000000000000815260040161124090611c4f565b60405180910390fd5b50505050565b604051806040016040528082600260003373ffffffffffffffffffffffffffffffffffffffff1673ffffffffffffffffffffffffffffffffffffffff16815260200190815260200160002060000160009054906101000a90046fffffffffffffffffffffffffffffffff166112c49190611cb3565b6fffffffffffffffffffffffffffffffff168152602001426fffffffffffffffffffffffffffffffff16815250600260003373ffffffffffffffffffffffffffffffffffffffff1673ffffffffffffffffffffffffffffffffffffffff16815260200190815260200160002060008201518160000160006101000a8154816fffffffffffffffffffffffffffffffff02191690836fffffffffffffffffffffffffffffffff16021790555060208201518160000160106101000a8154816fffffffffffffffffffffffffffffffff02191690836fffffffffffffffffffffffffffffffff16021790555090505050565b600080fd5b60006fffffffffffffffffffffffffffffffff82169050919050565b6113de816113b9565b81146113e957600080fd5b50565b6000813590506113fb816113d5565b92915050565b600060208284031215611417576114166113b4565b5b6000611425848285016113ec565b91505092915050565b600073ffffffffffffffffffffffffffffffffffffffff82169050919050565b60006114598261142e565b9050919050565b6114698161144e565b811461147457600080fd5b50565b60008135905061148681611460565b92915050565b6000602082840312156114a2576114a16113b4565b5b60006114b084828501611477565b91505092915050565b6114c2816113b9565b82525050565b60006040820190506114dd60008301856114b9565b6114ea60208301846114b9565b9392505050565b6000819050919050565b611504816114f1565b811461150f57600080fd5b50565b600081359050611521816114fb565b92915050565b60006020828403121561153d5761153c6113b4565b5b600061154b84828501611512565b91505092915050565b61155d816114f1565b82525050565b60006040820190506115786000830185611554565b61158560208301846114b9565b9392505050565b6115958161144e565b82525050565b60006020820190506115b0600083018461158c565b92915050565b60006020820190506115cb6000830184611554565b92915050565b600082825260208201905092915050565b7f446f6e2774206861766520736f206d616e7920746f6b656e7300000000000000600082015250565b60006116186019836115d1565b9150611623826115e2565b602082019050919050565b600060208201905081810360008301526116478161160b565b9050919050565b6000606082019050611663600083018661158c565b61167060208301856114b9565b61167d6040830184611554565b949350505050565b7f436f6e7472616374206861736e277420737570706c7900000000000000000000600082015250565b60006116bb6016836115d1565b91506116c682611685565b602082019050919050565b600060208201905081810360008301526116ea816116ae565b9050919050565b7f4e487b7100000000000000000000000000000000000000000000000000000000600052601160045260246000fd5b600061172b826114f1565b9150611736836114f1565b925082820390508181111561174e5761174d6116f1565b5b92915050565b7f4e487b7100000000000000000000000000000000000000000000000000000000600052601260045260246000fd5b600061178e826114f1565b9150611799836114f1565b9250826117a9576117a8611754565b5b828204905092915050565b7f4e487b7100000000000000000000000000000000000000000000000000000000600052603260045260246000fd5b60006117ee826114f1565b91507fffffffffffffffffffffffffffffffffffffffffffffffffffffffffffffffff82036118205761181f6116f1565b5b600182019050919050565b6000611836826114f1565b9150611841836114f1565b9250828201905080821115611859576118586116f1565b5b92915050565b600061186a826114f1565b9150611875836114f1565b9250817fffffffffffffffffffffffffffffffffffffffffffffffffffffffffffffffff04831182151516156118ae576118ad6116f1565b5b828202905092915050565b7f596f7520617265206e6f7420746865206f776e65720000000000000000000000600082015250565b60006118ef6015836115d1565b91506118fa826118b9565b602082019050919050565b6000602082019050818103600083015261191e816118e2565b9050919050565b7f436f6e74726163742068617320616c7265616479206120737570706c79000000600082015250565b600061195b601d836115d1565b915061196682611925565b602082019050919050565b6000602082019050818103600083015261198a8161194e565b9050919050565b600060ff82169050919050565b6119a781611991565b81146119b257600080fd5b50565b6000815190506119c48161199e565b92915050565b6000602082840312156119e0576119df6113b4565b5b60006119ee848285016119b5565b91505092915050565b60008160011c9050919050565b6000808291508390505b6001851115611a4e57808604811115611a2a57611a296116f1565b5b6001851615611a395780820291505b8081029050611a47856119f7565b9450611a0e565b94509492505050565b600082611a675760019050611b23565b81611a755760009050611b23565b8160018114611a8b5760028114611a9557611ac4565b6001915050611b23565b60ff841115611aa757611aa66116f1565b5b8360020a915084821115611abe57611abd6116f1565b5b50611b23565b5060208310610133831016604e8410600b8410161715611af95782820a905083811115611af457611af36116f1565b5b611b23565b611b068484846001611a04565b92509050818404811115611b1d57611b1c6116f1565b5b81810290505b9392505050565b6000611b35826114f1565b9150611b40836114f1565b9250611b6d7fffffffffffffffffffffffffffffffffffffffffffffffffffffffffffffffff8484611a57565b905092915050565b6000604082019050611b8a600083018561158c565b611b976020830184611554565b9392505050565b60008115159050919050565b611bb381611b9e565b8114611bbe57600080fd5b50565b600081519050611bd081611baa565b92915050565b600060208284031215611bec57611beb6113b4565b5b6000611bfa84828501611bc1565b91505092915050565b7f5472616e736665722066726f6d206572726f7200000000000000000000000000600082015250565b6000611c396013836115d1565b9150611c4482611c03565b602082019050919050565b60006020820190508181036000830152611c6881611c2c565b9050919050565b6000611c7a826113b9565b9150611c85836113b9565b925082820390506fffffffffffffffffffffffffffffffff811115611cad57611cac6116f1565b5b92915050565b6000611cbe826113b9565b9150611cc9836113b9565b925082820190506fffffffffffffffffffffffffffffffff811115611cf157611cf06116f1565b5b92915050565b6000606082019050611d0c600083018661158c565b611d19602083018561158c565b611d266040830184611554565b94935050505056fea26469706673582212200182c8b7fba962e64ce2f86a3a404faf934f4e2363ce6101274c630f1deb291464736f6c63430008100033a264697066735822122044b2915ed212ec29bcf18a22304fd6c814fb3e810d1415e67ee547f91ed2684d64736f6c63430008100033",
  "linkReferences": {},
  "deployedLinkReferences": {}
}